:020000040800F2
:1000000000500020E50700086107000867070008A6
:100010006D0700087307000879070008000000005A
:100020000000000000000000000000007F07000842
:100030008B0700080000000097070008A3070008CE
:100040002D0800082D0800082D0800082D080008BC
:100050002D0800082D0800082D0800082D080008AC
:100060002D0800082D0800082D080008B107000819
:100070002D0800082D0800082D0800082D0800088C
:100080002D0800082D080008C50700082D080008E5
:100090002D0800082D0800082D0800082D0800086C
:1000A0002D0800082D0800082D0800082D0800085C
:1000B0002D0800082D0800082D0800082D0800084C
:1000C0002D0800082D0800082D0800082D0800083C
:1000D0002D0800082D0800082D0800082D0800082C
:1000E0002D0800082D0800082D0800080000000059
:1000F0000000000000000000000000000000000000
:0C01000000000000000000005FF808F1A3
:10010C0010B5054C237833B9044B13B10448AFF345
:10011C0000800123237010BD0C00002000000000A3
:10012C00082E000808B5034B1BB103490348AFF375
:10013C00008008BD0000000010000020082E000800
:10014C0080B500AF00F06EFB00F044F800F0B2F99F
:10015C0000F092F900F098F800F0F2F8002118483D
:10016C0002F0F2F90421164802F0EEF908211448C5
:10017C0002F0EAF903221349134800F08DFC082120
:10018C00124801F0CDFC03461A46114B1A70104B65
:10019C001B78012B04D1012240210C4801F0D7FC23
:1001AC00084B1A88064B1B685A63064B5A88044B3B
:1001BC001B689A63034B9A88014B1B68DA63DEE772
:1001CC00B40000202800002040000020000C01405A
:1001DC003C00002080B594B000AF07F12803282222
:1001EC000021184602F0DDFD07F1140300221A600D
:1001FC005A609A60DA601A613B1D00221A605A60DC
:10020C009A60DA600123BB624FF48033FB620023F7
:10021C003B630123BB6302237B644FF48033BB64D9
:10022C004FF4E013FB6407F12803184601F0A8FC17
:10023C000346002B01D000F093F90F237B610223BE
:10024C00BB618023FB6100233B6200237B6207F1CF
:10025C0014030221184601F015FF0346002B01D0B0
:10026C0000F07EF902237B604FF48043FB603B1D62
:10027C00184602F063F80346002B01D000F070F929
:10028C0000BF5037BD4680BD80B584B000AF3B1D6C
:10029C0000221A605A609A60274B284A1A60264B33
:1002AC004FF480729A60244B01221A73224B002265
:1002BC001A75214B4FF46022DA611F4B00225A60F1
:1002CC001D4B03221A611C4800F00EFB0346002B49
:1002DC0001D000F045F900237B600123BB600723AC
:1002EC00FB603B1D1946144800F098FD0346002B9B
:1002FC0001D000F035F901237B600223BB603B1D6C
:10030C0019460D4800F08AFD0346002B01D000F081
:10031C0027F902237B600323BB603B1D194606486B
:10032C0000F07CFD0346002B01D000F019F900BF52
:10033C001037BD4680BD00BF4000002000240140A6
:10034C0080B592B000AF07F1400300221A605A60EA
:10035C0007F1240300221A605A609A60DA601A616D
:10036C005A619A613B1D20220021184602F019FDAA
:10037C003F4B404A1A603E4B00225A603C4B0022D5
:10038C009A603B4B40F6FF72DA60394B00221A61DF
:10039C00374B00225A61364B00229A61344802F0E6
:1003AC0083F80346002B01D000F0DAF800233B64FD
:1003BC0000237B6407F1400319462D4802F042FCF0
:1003CC000346002B01D000F0CBF860237B620023A6
:1003DC00BB620023FB6200233B6300237B6300238F
:1003EC00BB630023FB6307F124030022194620485A
:1003FC0002F04CF90346002B01D000F0B1F807F1E4
:10040C002403042219461A4802F040F90346002B33
:10041C0001D000F0A5F807F124030822194614486E
:10042C0002F034F90346002B01D000F099F80023B8
:10043C007B600023BB600023FB6000233B61002337
:10044C007B614FF40053BB6100233B623B1D19469B
:10045C00074802F055FC0346002B01D000F080F851
:10046C00034800F043F900BF4837BD4680BD00BFCC
:10047C00B4000020002C014080B582B000AF0C4BC2
:10048C005B690B4A43F001035361094B5B6903F051
:10049C0001037B607B68002200210B2000F097FF9A
:1004AC000B2000F0B0FF00BF0837BD4680BD00BF79
:1004BC000010024080B588B000AF07F11003002295
:1004CC001A605A609A60DA60234B9B69224A43F0A7
:1004DC0020039361204B9B6903F02003FB60FB68B6
:1004EC001D4B9B691C4A43F0040393611A4B9B6997
:1004FC0003F00403BB60BB68174B9B69164A43F0BF
:10050C0008039361144B9B6903F008037B607B68C1
:10051C0000224021114801F01AFB08233B61002303
:10052C007B610023BB6107F1100319460B4801F0F6
:10053C0073F940233B6101237B610023BB610223E0
:10054C00FB6107F110031946044801F065F900BF7F
:10055C002037BD4680BD00BF00100240000C01409A
:10056C0080B400AF72B600BFFEE7000080B485B067
:10057C0000AF154B9B69144A43F001039361124B76
:10058C009B6903F00103BB60BB680F4BDB690E4A30
:10059C0043F08053D3610C4BDB6903F080537B60D9
:1005AC007B680A4B5B68FB60FB6823F0E063FB60D5
:1005BC00FB6843F00073FB60044AFB68536000BFA8
:1005CC001437BD4680BC704700100240000001404B
:1005DC0080B588B000AF786007F1100300221A6074
:1005EC005A609A60DA607B681B682C4A934251D13E
:1005FC002B4B9B692A4A43F400739361284B9B69EC
:10060C0003F40073FB60FB68254B9B69244A43F0A1
:10061C0004039361224B9B6903F00403BB60BB682A
:10062C0007233B6103237B6107F1100319461D4827
:10063C0001F0F2F81C4B1D4A1A601B4B00225A6049
:10064C00194B00229A60184B8022DA60164B4FF43B
:10065C0080721A61144B4FF480625A61124B202243
:10066C009A61114B0022DA610F4800F0E7FE034655
:10067C00002B01D0FFF774FF7B680B4A1A620A4A01
:10068C007B68536200220121122000F0A0FE122090
:10069C0000F0B9FE00BF2037BD4680BD00240140EC
:1006AC0000100240000801407000002008000240C9
:1006BC0080B485B000AF78607B681B68094A9342B0
:1006CC000BD1094B9B69084A43F400639361064BB9
:1006DC009B6903F40063FB60FB6800BF1437BD46E5
:1006EC0080BC7047002C01400010024080B588B0DF
:1006FC0000AF786007F1100300221A605A609A600C
:10070C00DA607B681B68104A934218D10F4B9B69C7
:10071C000E4A43F0040393610C4B9B6903F00403F2
:10072C00FB60FB684FF4E0633B6102237B610223B7
:10073C00FB6107F110031946054801F06DF800BF85
:10074C002037BD4680BD00BF002C01400010024088
:10075C000008014080B400AFFEE780B400AFFEE7B4
:10076C0080B400AFFEE780B400AFFEE780B400AF0A
:10077C00FEE780B400AF00BFBD4680BC704780B4BC
:10078C0000AF00BFBD4680BC704780B400AF00BF57
:10079C00BD4680BC704780B500AF00F089F800BF43
:1007AC0080BD000080B500AF024800F001FF00BF23
:1007BC0080BD00BF7000002080B500AF024800F083
:1007CC0049FA00BF80BD00BF4000002080B400AFDC
:1007DC0000BFBD4680BC7047FFF7F8FF0B480C49C3
:1007EC000C4A002302E0D458C4500433C4188C4281
:1007FC00F9D3094A094C002301E013600432A242E8
:10080C00FBD302F0D7FAFFF79BFC704700000020E7
:10081C000C0000204C2E00080C00002000010020D1
:10082C00FEE7000080B500AF084B1B68074A43F099
:10083C0010031360032000F0BFFD0F2000F008F838
:10084C00FFF794FE0023184680BD00BF0020024035
:10085C0080B582B000AF7860124B1A68124B1B78CF
:10086C0019464FF47A73B3FBF1F3B2FBF3F318466A
:10087C0000F0D7FD0346002B01D001230EE07B686E
:10088C000F2B0AD8002279684FF0FF3000F09FFD43
:10089C00064A7B681360002300E0012318460837E2
:1008AC00BD4680BD00000020080000200400002090
:1008BC0080B400AF054B1B781A46054B1B681344DC
:1008CC00034A136000BFBD4680BC7047080000207F
:1008DC00FC00002080B400AF024B1B681846BD46DC
:1008EC0080BC7047FC00002080B586B000AF7860FB
:1008FC000023FB7500233B610023BB600023FB60DE
:10090C007B68002B01D10123BEE07B689B68002B28
:10091C007B689B6A002B09D17B680022DA627B68BA
:10092C00002283F824207868FFF752FE786800F0E4
:10093C00C7FB0346FB757B689B6A03F01003002B17
:10094C0040F09980FB7D002B40F095807B689B6A82
:10095C0023F4885323F0020343F002027B689A626B
:10096C007B685A687B68DB691A437B681B7B5B007E
:10097C001343BA681343BB607B689B68B3F5807FF5
:10098C0003D07B689B68012B02D14FF4807300E08D
:10099C0000233A6913433B617B681B7D012B19D102
:1009AC007B681B7B002B09D17B689B69013B5A033D
:1009BC003B69134343F400633B610BE07B689B6A28
:1009CC0043F020027B689A627B68DB6A43F0010289
:1009DC007B68DA627B681B685B6823F469417B681F
:1009EC001B683A690A435A607B681B689A68284BF3
:1009FC0013407A681268B9680B4393607B689B68F4
:100A0C00B3F5807F03D07B689B68012B04D17B6896
:100A1C001B69013B1B05FB607B681B68DB6A23F4CD
:100A2C0070017B681B68FA680A43DA627B681B6892
:100A3C009A68184B1340BA689A420BD17B68002213
:100A4C00DA627B689B6A23F0030343F001027B6844
:100A5C009A6218E07B689B6A23F0120343F0100241
:100A6C007B689A627B68DB6A43F001027B68DA621E
:100A7C000123FB7507E07B689B6A43F010027B68DF
:100A8C009A620123FB75FB7D18461837BD4680BD65
:100A9C00FDF7E1FFFE0E1FFF80B586B000AFF860DA
:100AAC00B9607A600023FB75FB681B68644A93424B
:100ABC0004D0FB681B68634A934206D1604B5B68A9
:100ACC0003F47023002B40F0B380FB6893F82430C0
:100ADC00012B01D10223AEE0FB68012283F8242014
:100AEC00F86800F093FA0346FB75FB7D002B40F091
:100AFC009A80FB689B6A23F4706323F0010343F430
:100B0C008072FB689A62FB681B684E4A934205D15F
:100B1C004B4B5B6803F47023002B15D1FB689B6A6D
:100B2C0023F48012FB689A62FB681B685B6803F411
:100B3C008063002B26D0FB689B6A23F4405343F45C
:100B4C008052FB689A621DE0FB689B6A43F480123A
:100B5C00FB689A62FB681B68394A934204D0FB68B5
:100B6C001B68384A93420DD1354B5B6803F48063A4
:100B7C00002B07D0FB689B6A23F4405343F480524C
:100B8C00FB689A62FB689B6A03F48053002B06D0C7
:100B9C00FB68DB6A23F00602FB68DA6202E0FB68A2
:100BAC000022DA62FB68002283F82420FB681B6AAF
:100BBC00254A9A62FB681B6A244ADA62FB681B6A44
:100BCC00234A1A63FB681B686FF002021A60FB6809
:100BDC001B689A68FB681B6842F480729A60FB6819
:100BEC00186AFB681B684C331946BA687B6800F0BE
:100BFC007FFCFB681B689B6803F46023B3F5602FD4
:100C0C0008D1FB681B689A68FB681B6842F4A00259
:100C1C009A600FE0FB681B689A68FB681B6842F4DB
:100C2C0080129A6006E0FB68002283F8242001E021
:100C3C000123FB75FB7D18461837BD4680BD00BFF0
:100C4C0000240140002801404F110008CB1100087E
:100C5C00E711000880B584B000AF78607B681B6832
:100C6C001B68FB607B681B685B68BB60BB6803F040
:100C7C002003002B3ED0FB6803F00203002B39D07D
:100C8C007B689B6A03F01003002B05D17B689B6A81
:100C9C0043F400727B689A627B681B689B6803F460
:100CAC006023B3F5602F1DD17B681B7B002B19D102
:100CBC007B681B685A687B681B6822F020025A60AC
:100CCC007B689B6A23F480727B689A627B689B6A60
:100CDC0003F48053002B05D17B689B6A43F001021F
:100CEC007B689A62786800F074F87B681B686FF018
:100CFC0012021A60BB6803F08003002B4DD0FB6816
:100D0C0003F00403002B48D07B689B6A03F01003AC
:100D1C00002B05D17B689B6A43F400527B689A6276
:100D2C007B681B689B6803F4E043B3F5E04F12D07B
:100D3C007B681B685B6803F48063002B25D17B68A0
:100D4C001B689B6803F46023B3F5602F1DD17B688F
:100D5C001B7B002B19D17B681B685A687B681B684E
:100D6C0022F080025A607B689B6A23F480527B6875
:100D7C009A627B689B6A03F48073002B05D17B68B5
:100D8C009B6A43F001027B689A62786800F03FFA34
:100D9C007B681B686FF00C021A60BB6803F04003A1
:100DAC00002B12D0FB6803F00103002B0DD07B68E5
:100DBC009B6A43F480327B689A62786800F01BF877
:100DCC007B681B686FF001021A6000BF1037BD46CC
:100DDC0080BD80B483B000AF786000BF0C37BD46D7
:100DEC0080BC704780B483B000AF786000BF0C3714
:100DFC00BD4680BC704780B483B000AF786000BF44
:100E0C000C37BD4680BC704780B483B000AF7860AF
:100E1C0000BF0C37BD4680BC7047000080B485B065
:100E2C0000AF786039600023FB730023BB607B68E4
:100E3C0093F82430012B01D10223DCE07B680122E2
:100E4C0083F824203B685B68062B1CD87B681B68E6
:100E5C00596B3B685A6813469B001344053B1F2291
:100E6C0002FA03F3DB4319403B6818683B685A6885
:100E7C0013469B001344053B00FA03F27B681B6886
:100E8C000A435A633CE03B685B680C2B1CD87B68BC
:100E9C001B68196B3B685A6813469B001344233B31
:100EAC001F2202FA03F3DB4319403B6818683B68C6
:100EBC005A6813469B001344233B00FA03F27B68E9
:100ECC001B680A431A631BE07B681B68D96A3B6882
:100EDC005A6813469B001344413B1F2202FA03F34A
:100EEC00DB4319403B6818683B685A6813469B0003
:100EFC001344413B00FA03F27B681B680A43DA6235
:100F0C003B681B68092B1CD97B681B68D9683B683C
:100F1C001A6813465B0013441E3B072202FA03F3C4
:100F2C00DB4319403B6898683B681A6813465B00C2
:100F3C0013441E3B00FA03F27B681B680A43DA6019
:100F4C0019E07B681B6819693B681A6813465B00DB
:100F5C001344072202FA03F3DB4319403B689868F9
:100F6C003B681A6813465B00134400FA03F27B6873
:100F7C001B680A431A613B681B68102B03D03B6843
:100F8C001B68112B32D17B681B681D4A934225D1FB
:100F9C007B681B689B6803F40003002B26D17B68DD
:100FAC001B689A687B681B6842F400029A603B6875
:100FBC001B68102B1AD1134B1B68134AA2FB03237B
:100FCC009A0C13469B0013445B00BB6002E0BB68A9
:100FDC00013BBB60BB68002BF9D107E07B689B6AC7
:100FEC0043F020027B689A620123FB737B6800222A
:100FFC0083F82420FB7B18461437BD4680BC704711
:10100C00002401400000002083DE1B4380B584B027
:10101C0000AF78600023FB600023BB607B681B681B
:10102C009B6803F00103012B40D07B681B689A6816
:10103C007B681B6842F001029A601F4B1B681F4AB9
:10104C00A2FB03239B0CBB6002E0BB68013BBB60B3
:10105C00BB68002BF9D1FFF73DFCF8601FE0FFF7F0
:10106C0039FC0246FB68D31A022B18D97B681B6823
:10107C009B6803F00103012B11D07B689B6A43F042
:10108C0010027B689A627B68DB6A43F001027B6822
:10109C00DA627B68002283F82420012307E07B6856
:1010AC001B689B6803F00103012BD8D10023184661
:1010BC001037BD4680BD00BF0000002083DE1B43FF
:1010CC0080B584B000AF78600023FB607B681B6840
:1010DC009B6803F00103012B2ED17B681B689A6877
:1010EC007B681B6822F001029A60FFF7F3FBF86043
:1010FC001BE0FFF7EFFB0246FB68D31A022B14D957
:10110C007B681B689B6803F00103012B0DD17B6886
:10111C009B6A43F010027B689A627B68DB6A43F03F
:10112C0001027B68DA62012307E07B681B689B681D
:10113C0003F00103012BDCD0002318461037BD4609
:10114C0080BD80B584B000AF78607B685B6AFB6063
:10115C00FB689B6A03F05003002B27D1FB689B6A4A
:10116C0043F40072FB689A62FB681B689B6803F48B
:10117C006023B3F5602F15D1FB681B7B002B11D1BD
:10118C00FB689B6A23F48072FB689A62FB689B6A1B
:10119C0003F48053002B05D1FB689B6A43F00102DA
:1011AC00FB689A62F868FFF714FE04E0FB681B6AA0
:1011BC001B6B7868984700BF1037BD4680BD80B563
:1011CC0084B000AF78607B685B6AFB60F868FFF7FF
:1011DC0009FE00BF1037BD4680BD80B584B000AF9E
:1011EC0078607B685B6AFB60FB689B6A43F040023B
:1011FC00FB689A62FB68DB6A43F00402FB68DA6204
:10120C00F868FFF701FE00BF1037BD4680BD80B403
:10121C0083B000AF786000BF0C37BD4680BC704710
:10122C0080B485B000AF78607B6803F00703FB6087
:10123C000C4BDB68BB60BA684FF6FF031340BB6016
:10124C00FB681A02BB68134343F0BF6343F40033DB
:10125C00BB60044ABB68D36000BF1437BD4680BC7A
:10126C00704700BF00ED00E080B400AF044BDB68BA
:10127C001B0A03F007031846BD4680BC704700BF2D
:10128C0000ED00E080B483B000AF0346FB7197F92A
:10129C000730002B0BDBFB7903F01F02064997F993
:1012AC0007305B09012000FA02F241F8232000BF4D
:1012BC000C37BD4680BC704700E100E080B483B0C1
:1012CC0000AF03463960FB7197F90730002B0ADB3E
:1012DC003B68DAB20C4997F907301201D2B20B44D1
:1012EC0083F800230AE03B68DAB20849FB7903F083
:1012FC000F03043B1201D2B20B441A7600BF0C3719
:10130C00BD4680BC704700BF00E100E000ED00E08E
:10131C0080B489B000AFF860B9607A60FB6803F004
:10132C000703FB61FB69C3F10703042B28BF0423EC
:10133C00BB61FB690433062B02D9FB69033B00E05C
:10134C0000237B614FF0FF32BB6902FA03F3DA43EF
:10135C00BB681A407B699A404FF0FF317B6901FAF8
:10136C0003F3D9437B680B40134318462437BD461F
:10137C0080BC704780B582B000AF78607B68013B61
:10138C00B3F1807F01D301230FE00A4A7B68013B54
:10139C0053600F214FF0FF30FFF790FF054B0022F9
:1013AC009A60044B07221A60002318460837BD4682
:1013BC0080BD00BF10E000E080B582B000AF786067
:1013CC007868FFF72DFF00BF0837BD4680BD80B59C
:1013DC0086B000AF0346B9607A60FB7300237B6173
:1013EC00FFF742FF78617A68B9687869FFF790FF78
:1013FC00024697F90F3011461846FFF75FFF00BF02
:10140C001837BD4680BD80B582B000AF0346FB7176
:10141C0097F907301846FFF735FF00BF0837BD4670
:10142C0080BD80B582B000AF78607868FFF7A2FF0E
:10143C00034618460837BD4680BD000080B485B011
:10144C0000AF78600023FB607B68002B01D1012387
:10145C0043E07B681B681A46224B1344224AA2FBCA
:10146C0003231B099A007B681A647B681F4ADA63A2
:10147C007B68022283F821207B681B681B68FB6059
:10148C00FB6823F47F5323F03003FB607B685A68BE
:10149C007B689B681A437B68DB681A437B681B6913
:1014AC001A437B685B691A437B689B691A437B68A8
:1014BC00DB691343FA681343FB607B681B68FA68AB
:1014CC001A607B6800229A637B68012283F82120D2
:1014DC007B68002283F82020002318461437BD4671
:1014EC0080BC7047F8FFFDBFCDCCCCCC00000240D7
:1014FC0080B586B000AFF860B9607A603B600023BD
:10150C00FB75FB6893F82030012B01D102234BE0D3
:10151C00FB68012283F82020FB6893F82130DBB2B2
:10152C00012B3AD1FB68022283F82120FB680022B0
:10153C009A63FB681B681A68FB681B6822F001023F
:10154C001A603B687A68B968F86800F037F9FB688C
:10155C00DB6A002B08D0FB681B681A68FB681B68E9
:10156C0042F00E021A600FE0FB681B681A68FB68F9
:10157C001B6822F004021A60FB681B681A68FB687F
:10158C001B6842F00A021A60FB681B681A68FB6849
:10159C001B6842F001021A6005E0FB68002283F828
:1015AC0020200223FB75FB7D18461837BD4680BDF5
:1015BC0080B584B000AF78607B68DB6B1B68FB6028
:1015CC007B681B681B68BB607B681B6C04229A40A1
:1015DC00FB681340002B4FD0BB6803F00403002BB7
:1015EC004AD07B681B681B6803F02003002B07D1D3
:1015FC007B681B681A687B681B6822F004021A60FF
:10160C007B681B68664A934229D07B681B68654AD5
:10161C00934222D07B681B68634A93421AD07B6842
:10162C001B68624A934212D07B681B68604A9342E3
:10163C000AD07B681B685F4A934202D14FF4800347
:10164C000EE04FF080630BE04FF4802308E04FF482
:10165C00804305E04FF4806302E0402300E0042364
:10166C00554A53607B68DB6A002B00F094807B68E2
:10167C00DB6A786898478EE07B681B6C02229A4084
:10168C00FB681340002B56D0BB6803F00203002B01
:10169C0051D07B681B681B6803F02003002B0BD117
:1016AC007B681B681A687B681B6822F00A021A6048
:1016BC007B68012283F821207B681B68384A93429F
:1016CC0029D07B681B68374A934222D07B681B6801
:1016DC00354A93421AD07B681B68344A934212D025
:1016EC007B681B68324A93420AD07B681B68314A7C
:1016FC00934202D14FF400130EE04FF000730BE055
:10170C004FF4003308E04FF4005305E04FF400733E
:10171C0002E0202300E00223274A53607B6800226A
:10172C0083F820207B689B6A002B34D07B689B6AF3
:10173C00786898472FE07B681B6C08229A40FB68FE
:10174C001340002B28D0BB6803F00803002B23D0D8
:10175C007B681B681A687B681B6822F00E021A6093
:10176C007B681A6C7B68DB6B012101FA02F25A6010
:10177C007B6801229A637B68012283F821207B68B5
:10178C00002283F820207B681B6B002B04D07B6825
:10179C001B6B7868984700BF00BF1037BD4680BDF3
:1017AC00080002401C00024030000240440002408D
:1017BC00580002406C0002400000024080B485B02A
:1017CC0000AFF860B9607A603B60FB681A6CFB682C
:1017DC00DB6B012101FA02F25A60FB681B683A6864
:1017EC005A60FB685B68102B08D1FB681B687A6831
:1017FC009A60FB681B68BA68DA6007E0FB681B68D4
:10180C00BA689A60FB681B687A68DA6000BF1437A4
:10181C00BD4680BC7047000080B48BB000AF7860D0
:10182C00396000237B6200233B6269E101227B6A01
:10183C0002FA03F3FB613B681B68FA691340BB6156
:10184C00BA69FB699A4240F058813B685B689A4AD6
:10185C0093425ED0984A934275D8984A934258D096
:10186C00964A93426FD8964A934252D0944A9342E6
:10187C0069D8944A93424CD0924A934263D8924A84
:10188C00934246D0904A93425DD8122B2AD8122B01
:10189C0059D801A252F823F01F190008F9180008B2
:1018AC000B1900084D1900085319000853190008AA
:1018BC00531900085319000853190008531900084C
:1018CC00531900085319000853190008531900083C
:1018DC00531900085319000853190008011900087E
:1018EC0015190008794A934213D02CE03B68DB6849
:1018FC003B6229E03B68DB6804333B6224E03B68D5
:10190C00DB6808333B621FE03B68DB680C333B62EF
:10191C001AE03B689B68002B02D104233B6213E066
:10192C003B689B68012B05D108233B627B68FA69F5
:10193C001A6109E008233B627B68FA695A6103E08B
:10194C0000233B6200E000BFBB69FF2B01D87B6822
:10195C0001E07B6804337B61BB69FF2B02D87B6A97
:10196C009B0002E07B6A083B9B003B617B691A6829
:10197C000F213B6901FA03F3DB431A40396A3B69D7
:10198C0001FA03F31A437B691A603B685B6803F046
:10199C008053002B00F0B1804D4B9B694C4A43F0B7
:1019AC00010393614A4B9B6903F00103BB60BB6865
:1019BC00484A7B6A9B08023352F82330FB607B6AEF
:1019CC0003F003039B000F2202FA03F3DB43FA68D4
:1019DC001340FB607B68404A934213D07B683F4ABC
:1019EC0093420DD07B683E4A934207D07B683D4AB8
:1019FC00934201D1032306E0042304E0022302E016
:101A0C00012300E000237A6A02F003029200934063
:101A1C00FA681343FB602F497B6A9B080233FA6810
:101A2C0041F823203B685B6803F48013002B06D03D
:101A3C002D4B9A682C49BB6913438B6006E02A4BEB
:101A4C009A68BB69DB43284913408B603B685B6831
:101A5C0003F40013002B06D0234BDA682249BB6930
:101A6C001343CB6006E0204BDA68BB69DB431E49AD
:101A7C001340CB603B685B6803F40033002B06D04B
:101A8C00194B5A681849BB6913434B6006E0164B57
:101A9C005A68BB69DB43144913404B603B685B6875
:101AAC0003F48033002B21D00F4B1A680E49BB690D
:101ABC0013430B6021E000BF000032100000311016
:101ACC000000221000002110000012100000111064
:101ADC00001002400000014000080140000C0140D1
:101AEC000010014000140140000401400B4B1A6827
:101AFC00BB69DB43094913400B607B6A01337B6292
:101B0C003B681A687B6A22FA03F3002B7FF48EAED3
:101B1C0000BF00BF2C37BD4680BC7047000401409D
:101B2C0080B485B000AF78600B467B807B689A6888
:101B3C007B881340002B02D00123FB7301E00023B0
:101B4C00FB73FB7B18461437BD4680BC704780B4D2
:101B5C0083B000AF78600B467B8013467B707B783C
:101B6C00002B03D07A887B681A6103E07B881A0407
:101B7C007B681A6100BF0C37BD4680BC7047000003
:101B8C0080B586B000AF78607B68002B01D1012353
:101B9C0072E27B681B6803F00103002B00F0878066
:101BAC00924B5B6803F00C03042B0CD08F4B5B68DF
:101BBC0003F00C03082B12D18C4B5B6803F48033BD
:101BCC00B3F5803F0BD1894B1B6803F40033002B1A
:101BDC006CD07B685B68002B68D101234CE27B687E
:101BEC005B68B3F5803F06D1804B1B687F4A43F49A
:101BFC00803313602EE07B685B68002B0CD17B4B31
:101C0C001B687A4A23F480331360784B1B68774A3D
:101C1C0023F4802313601DE07B685B68B3F5A02F71
:101C2C000CD1724B1B68714A43F4802313606F4BC9
:101C3C001B686E4A43F4803313600BE06B4B1B68DC
:101C4C006A4A23F480331360684B1B68674A23F499
:101C5C00802313607B685B68002B13D0FEF73AFE81
:101C6C00386108E0FEF736FE02463B69D31A642B56
:101C7C0001D9032300E25D4B1B6803F40033002BF6
:101C8C00F0D014E0FEF726FE386108E0FEF722FEE5
:101C9C0002463B69D31A642B01D90323ECE1534B65
:101CAC001B6803F40033002BF0D100E000BF7B680D
:101CBC001B6803F00203002B63D04C4B5B6803F0F2
:101CCC000C03002B0BD0494B5B6803F00C03082B67
:101CDC001CD1464B5B6803F48033002B16D1434B6D
:101CEC001B6803F00203002B05D07B681B69012BDA
:101CFC0001D00123C0E13D4B1B6823F0F8027B6847
:101D0C005B69DB00394913430B603AE07B681B6964
:101D1C00002B20D0364B01221A60FEF7DBFD386118
:101D2C0008E0FEF7D7FD02463B69D31A022B01D916
:101D3C000323A1E12D4B1B6803F00203002BF0D011
:101D4C002A4B1B6823F0F8027B685B69DB00274990
:101D5C0013430B6015E0264B00221A60FEF7BAFD08
:101D6C00386108E0FEF7B6FD02463B69D31A022B38
:101D7C0001D9032380E11D4B1B6803F00203002BE8
:101D8C00F0D17B681B6803F00803002B3AD07B680A
:101D9C009B69002B19D0174B01221A60FEF79AFD94
:101DAC00386108E0FEF796FD02463B69D31A022B18
:101DBC0001D9032360E10D4B5B6A03F00203002B96
:101DCC00F0D0012000F09CFA1CE00A4B00221A60B3
:101DDC00FEF780FD38610FE0FEF77CFD02463B69A3
:101DEC00D31A022B08D9032346E100BF001002408E
:101DFC000000424280044242924B5B6A03F00203B1
:101E0C00002BE9D17B681B6803F00403002B00F066
:101E1C00A6800023FB758B4BDB6903F08053002BF2
:101E2C000DD1884BDB69874A43F08053D361854BD6
:101E3C00DB6903F08053BB60BB680123FB75824BED
:101E4C001B6803F48073002B18D17F4B1B687E4AF0
:101E5C0043F480731360FEF73DFD386108E0FEF734
:101E6C0039FD02463B69D31A642B01D9032303E1E4
:101E7C00754B1B6803F48073002BF0D07B68DB6818
:101E8C00012B06D16F4B1B6A6E4A43F001031362A0
:101E9C002DE07B68DB68002B0CD16A4B1B6A694A0E
:101EAC0023F001031362674B1B6A664A23F0040399
:101EBC0013621CE07B68DB68052B0CD1614B1B6A41
:101ECC00604A43F0040313625E4B1B6A5D4A43F0A5
:101EDC00010313620BE05B4B1B6A5A4A23F00103AC
:101EEC001362584B1B6A574A23F0040313627B6836
:101EFC00DB68002B15D0FEF7EDFC38610AE0FEF72D
:101F0C00E9FC02463B69D31A41F28832934201D96B
:101F1C000323B1E04B4B1B6A03F00203002BEED002
:101F2C0014E0FEF7D7FC38610AE0FEF7D3FC02465A
:101F3C003B69D31A41F28832934201D903239BE0C7
:101F4C00404B1B6A03F00203002BEED1FB7D012BEF
:101F5C0005D13C4BDB693B4A23F08053D3617B6852
:101F6C00DB69002B00F08780364B5B6803F00C03B9
:101F7C00082B61D07B68DB69022B46D1334B0022E6
:101F8C001A60FEF7A7FC386108E0FEF7A3FC0246D6
:101F9C003B69D31A022B01D903236DE0294B1B6833
:101FAC0003F00073002BF0D17B681B6AB3F5803F04
:101FBC0008D1244B5B6823F400327B689B68214971
:101FCC0013434B601F4B5B6823F474127B68196AD4
:101FDC007B685B6A0B431B4913434B601B4B012211
:101FEC001A60FEF777FC386108E0FEF773FC0246D6
:101FFC003B69D31A022B01D903233DE0114B1B681B
:10200C0003F00073002BF0D035E0104B00221A6067
:10201C00FEF760FC386108E0FEF75CFC02463B69A9
:10202C00D31A022B01D9032326E0064B1B6803F0BD
:10203C000073002BF0D11EE07B68DB69012B07D10C
:10204C00012319E000100240007000406000424281
:10205C000B4B5B68FB60FB6803F480327B681B6A8C
:10206C009A4206D1FB6803F470127B685B6A9A4251
:10207C0001D0012300E0002318461837BD4680BD6F
:10208C000010024080B584B000AF786039607B6886
:10209C00002B01D10123D0E06A4B1B6803F007032E
:1020AC003A689A4210D9674B1B6823F007026549BE
:1020BC003B6813430B60634B1B6803F007033A68E0
:1020CC009A4201D00123B8E07B681B6803F002033D
:1020DC00002B20D07B681B6803F00403002B05D079
:1020EC00594B5B68584A43F4E06353607B681B6848
:1020FC0003F00803002B05D0534B5B68524A43F4A2
:10210C0060535360504B5B6823F0F0027B689B6814
:10211C004D4913434B607B681B6803F00103002B94
:10212C0040D07B685B68012B07D1474B1B6803F4DD
:10213C000033002B15D101237FE07B685B68022BF9
:10214C0007D1414B1B6803F00073002B09D101230D
:10215C0073E03D4B1B6803F00203002B01D10123FC
:10216C006BE0394B5B6823F003027B685B68364994
:10217C0013434B60FEF7AEFBF8600AE0FEF7AAFBD8
:10218C000246FB68D31A41F28832934201D90323E9
:10219C0053E02D4B5B6803F00C027B685B689B0083
:1021AC009A42EBD1274B1B6803F007033A689A421B
:1021BC0010D2244B1B6823F0070222493B681343BF
:1021CC000B60204B1B6803F007033A689A4201D05E
:1021DC00012332E07B681B6803F00403002B08D05A
:1021EC00194B5B6823F4E0627B68DB681649134388
:1021FC004B607B681B6803F00803002B09D0124B63
:10220C005B6823F460527B681B69DB000E49134347
:10221C004B6000F021F802460B4B5B681B0903F086
:10222C000F030A49CB5C22FA03F3094A1360094BEA
:10223C001B681846FEF70CFB002318461037BD46EA
:10224C0080BD00BF0020024000100240202E00087C
:10225C00000000200400002080B487B000AF0023F1
:10226C00FB600023BB6000237B6100237B600023A9
:10227C003B611E4B5B68FB60FB6803F00C03042B9B
:10228C0002D0082B03D027E0194B3B6127E0FB68F9
:10229C009B0C03F00F03174AD35C7B60FB6803F4C1
:1022AC008033002B10D0114B5B685B0C03F00103E7
:1022BC00114AD35CBB607B680D4A03FB02F2BB681E
:1022CC00B2FBF3F37B6104E07B680C4A02FB03F383
:1022DC007B617B693B6102E0054B3B6100BF3B6965
:1022EC0018461C37BD4680BC704700BF001002402A
:1022FC0000127A00302E0008402E000800093D0024
:10230C0080B485B000AF78600A4B1B680A4AA2FB08
:10231C0003235B0A7A6802FB03F3FB6000BFFB68D4
:10232C005A1EFA60002BF9D100BF00BF1437BD460E
:10233C0080BC704700000020D34D621080B586B081
:10234C0000AF786000233B610023FB607B681B6857
:10235C0003F00103002B7DD00023FB754F4BDB6991
:10236C0003F08053002B0DD14C4BDB694B4A43F0EF
:10237C008053D361494BDB6903F08053BB60BB686E
:10238C000123FB75464B1B6803F48073002B18D19B
:10239C00434B1B68424A43F480731360FEF79AFA6E
:1023AC00386108E0FEF796FA02463B69D31A642BB3
:1023BC0001D903236DE03A4B1B6803F48073002BA7
:1023CC00F0D0364B1B6A03F44073FB60FB68002BA8
:1023DC002ED07B685B6803F44073FA689A4227D06E
:1023EC002E4B1B6A23F44073FB602E4B01221A60A8
:1023FC002C4B00221A60294AFB681362FB6803F01D
:10240C000103002B14D0FEF765FA38610AE0FEF7E1
:10241C0061FA02463B69D31A41F28832934201D9E0
:10242C00032336E01D4B1B6A03F00203002BEED096
:10243C001A4B1B6A23F440727B685B681749134381
:10244C000B62FB7D012B05D1144BDB69134A23F086
:10245C008053D3617B681B6803F00203002B08D008
:10246C000E4B5B6823F440427B689B680B4913431B
:10247C004B607B681B6803F01003002B08D0074BE4
:10248C005B6823F480027B68DB68044913434B6070
:10249C00002318461837BD4680BD00BF001002400F
:1024AC00007000404004424280B582B000AF7860BA
:1024BC007B68002B01D1012341E07B6893F83D3010
:1024CC00DBB2002B06D17B68002283F83C207868B5
:1024DC00FEF7EEF87B68022283F83D207B681A68D1
:1024EC007B6804331946104600F092F97B68012290
:1024FC0083F846207B68012283F83E207B6801220A
:10250C0083F83F207B68012283F840207B680122FE
:10251C0083F841207B68012283F842207B680122EA
:10252C0083F843207B68012283F844207B680122D6
:10253C0083F845207B68012283F83D200023184650
:10254C000837BD4680BD000080B584B000AF786010
:10255C0039603B68002B09D17B6893F83E30DBB2C5
:10256C00012B14BF01230023DBB222E03B68042BB8
:10257C0009D17B6893F83F30DBB2012B14BF0123E8
:10258C000023DBB215E03B68082B09D17B6893F87C
:10259C004030DBB2012B14BF01230023DBB208E077
:1025AC007B6893F84130DBB2012B14BF012300236D
:1025BC00DBB2002B01D001235EE03B68002B04D181
:1025CC007B68022283F83E2013E03B68042B04D185
:1025DC007B68022283F83F200BE03B68082B04D178
:1025EC007B68022283F8402003E07B68022283F898
:1025FC0041207B681B6801223968184600F0FEFAFE
:10260C007B681B681E4A934207D17B681B685A6C17
:10261C007B681B6842F400425A647B681B68184A4A
:10262C0093420ED07B681B68B3F1804F09D07B6856
:10263C001B68144A934204D07B681B68124A93426D
:10264C0011D17B681B689B6803F00703FB60FB6878
:10265C00062B10D07B681B681A687B681B6842F0DD
:10266C0001021A6007E07B681B681A687B681B68AC
:10267C0042F001021A60002318461037BD4680BD97
:10268C00002C0140000400400008004080B586B0DA
:10269C0000AFF860B9607A600023FB75FB6893F8B3
:1026AC003C30012B01D10223AEE0FB68012283F800
:1026BC003C207B680C2B00F29F8001A252F823F087
:1026CC00012700080528000805280008052800082F
:1026DC0041270008052800080528000805280008DF
:1026EC00832700080528000805280008052800088D
:1026FC00C3270008FB681B68B968184600F0F6F899
:10270C00FB681B689A69FB681B6842F008029A61B7
:10271C00FB681B689A69FB681B6822F004029A61CB
:10272C00FB681B689969BB681A69FB681B680A43DC
:10273C009A6164E0FB681B68B968184600F03CF9C4
:10274C00FB681B689A69FB681B6842F400629A611B
:10275C00FB681B689A69FB681B6822F480629A61AB
:10276C00FB681B689969BB681B691A02FB681B68CC
:10277C000A439A6143E0FB681B68B968184600F08D
:10278C0085F9FB681B68DA69FB681B6842F0080274
:10279C00DA61FB681B68DA69FB681B6822F00402CB
:1027AC00DA61FB681B68D969BB681A69FB681B682E
:1027BC000A43DA6123E0FB681B68B968184600F02D
:1027CC00CFF9FB681B68DA69FB681B6842F400628E
:1027DC00DA61FB681B68DA69FB681B6822F48062AB
:1027EC00DA61FB681B68D969BB681B691A02FB6854
:1027FC001B680A43DA6102E00123FB7500BFFB682A
:10280C00002283F83C20FB7D18461837BD4680BD5E
:10281C0080B485B000AF786039607B681B68FB6062
:10282C007B682F4A93420BD07B68B3F1804F07D063
:10283C007B682C4A934203D07B682B4A934208D185
:10284C00FB6823F07003FB603B685B68FA6813431A
:10285C00FB607B68224A93420BD07B68B3F1804FBC
:10286C0007D07B681F4A934203D07B681E4A934271
:10287C0008D1FB6823F44073FB603B68DB68FA68A3
:10288C001343FB60FB6823F080023B685B691343D6
:10289C00FB607B68FA681A603B689A687B68DA624E
:1028AC003B681A687B689A627B680D4A934203D135
:1028BC003B681A697B681A637B6801225A617B68E2
:1028CC001B6903F00103002B05D07B681B6923F007
:1028DC0001027B681A6100BF1437BD4680BC70478B
:1028EC00002C0140000400400008004080B487B078
:1028FC0000AF786039607B681B6A7B617B681B6A00
:10290C0023F001027B681A627B685B683B617B6821
:10291C009B69FB60FB6823F07003FB60FB6823F092
:10292C000303FB603B681B68FA681343FB607B691D
:10293C0023F002037B613B689B687A6913437B61DC
:10294C007B681C4A93420CD17B6923F008037B61A2
:10295C003B68DB687A6913437B617B6923F0040372
:10296C007B617B68134A934211D13B6923F48073DA
:10297C003B613B6923F400733B613B685B693A69DB
:10298C0013433B613B689B693A6913433B617B682A
:10299C003A695A607B68FA689A613B685A687B6846
:1029AC005A637B687A691A6200BF1C37BD4680BCCB
:1029BC00704700BF002C014080B487B000AF786036
:1029CC0039607B681B6A7B617B681B6A23F0100291
:1029DC007B681A627B685B683B617B689B69FB6008
:1029EC00FB6823F4E043FB60FB6823F44073FB605B
:1029FC003B681B681B02FA681343FB607B6923F07E
:102A0C0020037B613B689B681B017A6913437B61E4
:102A1C007B681D4A93420DD17B6923F080037B6157
:102A2C003B68DB681B017A6913437B617B6923F08C
:102A3C0040037B617B68144A934213D13B6923F4B6
:102A4C0080633B613B6923F400633B613B685B69DA
:102A5C009B003A6913433B613B689B699B003A6955
:102A6C0013433B617B683A695A607B68FA689A61E8
:102A7C003B685A687B689A637B687A691A6200BF04
:102A8C001C37BD4680BC7047002C014080B487B019
:102A9C0000AF786039607B681B6A7B617B681B6A5E
:102AAC0023F480727B681A627B685B683B617B688D
:102ABC00DB69FB60FB6823F07003FB60FB6823F0B1
:102ACC000303FB603B681B68FA681343FB607B697C
:102ADC0023F400737B613B689B681B027A69134388
:102AEC007B617B681D4A93420DD17B6923F40063A3
:102AFC007B613B68DB681B027A6913437B617B69F2
:102B0C0023F480637B617B68144A934213D13B6945
:102B1C0023F480533B613B6923F400533B613B68D6
:102B2C005B691B013A6913433B613B689B691B0161
:102B3C003A6913433B617B683A695A607B68FA686F
:102B4C00DA613B685A687B68DA637B687A691A6277
:102B5C0000BF1C37BD4680BC704700BF002C014035
:102B6C0080B487B000AF786039607B681B6A3B61CA
:102B7C007B681B6A23F480527B681A627B685B68F3
:102B8C007B617B68DB69FB60FB6823F4E043FB60E3
:102B9C00FB6823F44073FB603B681B681B02FA68FC
:102BAC001343FB603B6923F400533B613B689B6818
:102BBC001B033A6913433B617B680F4A934209D16B
:102BCC007B6923F480437B613B685B699B017A6979
:102BDC0013437B617B687A695A607B68FA68DA61B7
:102BEC003B685A687B681A647B683A691A6200BF52
:102BFC001C37BD4680BC7047002C014080B487B0A8
:102C0C0000AFF860B9607A60BB6803F01F03012263
:102C1C0002FA03F37B61FB681A6A7B69DB431A4097
:102C2C00FB681A62FB681A6ABB6803F01F037968B9
:102C3C0001FA03F31A43FB681A6200BF1C37BD4646
:102C4C0080BC704780B485B000AF786039607B6819
:102C5C0093F83C30012B01D1022346E07B68012222
:102C6C0083F83C207B68022283F83D207B681B683C
:102C7C005B68FB607B681B689B68BB60FB6823F030
:102C8C007003FB603B681B68FA681343FB607B684E
:102C9C001B68FA685A607B681B68164A93420ED010
:102CAC007B681B68B3F1804F09D07B681B68124AA4
:102CBC00934204D07B681B68104A93420CD1BB68CA
:102CCC0023F08003BB603B685B68BA681343BB604E
:102CDC007B681B68BA689A607B68012283F83D2088
:102CEC007B68002283F83C20002318461437BD462D
:102CFC0080BC7047002C01400004004000080040DC
:102D0C0080B485B000AF786039600023FB607B68CD
:102D1C0093F83C30012B01D102233DE07B6801226A
:102D2C0083F83C20FB6823F0FF023B68DB6813430D
:102D3C00FB60FB6823F440723B689B681343FB60A9
:102D4C00FB6823F480623B685B681343FB60FB68A1
:102D5C0023F400623B681B681343FB60FB6823F49D
:102D6C0080523B681B691343FB60FB6823F40052E1
:102D7C003B685B691343FB60FB6823F480423B6850
:102D8C00DB691343FB607B681B68FA685A647B68D9
:102D9C00002283F83C20002318461437BD4680BC23
:102DAC00704703460244934200D1704703F8011B5D
:102DBC00F9E7000070B500260C4D0D4C641BA410F7
:102DCC00A64209D100F01AF800260A4D0A4C641BE1
:102DDC00A410A64205D170BD55F8043B98470136A6
:102DEC00EEE755F8043B98470136F2E7442E00080D
:102DFC00442E0008442E0008482E0008F8B500BFE9
:102E0C00F8BC08BC9E467047F8B500BFF8BC08BCBF
:042E1C009E46704717
:102E2000000000000000000001020304060708097A
:102E300002030405060708090A0B0C0D0E0F1010FB
:042E4000010200008B
:042E44003101000850
:042E48000D01000870
:0C2E4C0000127A001000000001000000DD
:04000005080007E503
:00000001FF
